{
  "contractName": "Vote",
  "abi": [
    {
      "anonymous": false,
      "inputs": [
        {
          "indexed": true,
          "internalType": "uint256",
          "name": "id",
          "type": "uint256"
        },
        {
          "indexed": false,
          "internalType": "uint256",
          "name": "vote",
          "type": "uint256"
        },
        {
          "indexed": false,
          "internalType": "address",
          "name": "voter",
          "type": "address"
        }
      ],
      "name": "PersonAdded",
      "type": "event"
    },
    {
      "constant": true,
      "inputs": [
        {
          "internalType": "uint256",
          "name": "",
          "type": "uint256"
        }
      ],
      "name": "voters",
      "outputs": [
        {
          "internalType": "address",
          "name": "",
          "type": "address"
        }
      ],
      "payable": false,
      "stateMutability": "view",
      "type": "function"
    },
    {
      "constant": true,
      "inputs": [
        {
          "internalType": "uint256",
          "name": "",
          "type": "uint256"
        }
      ],
      "name": "votes",
      "outputs": [
        {
          "internalType": "uint256",
          "name": "",
          "type": "uint256"
        }
      ],
      "payable": false,
      "stateMutability": "view",
      "type": "function"
    },
    {
      "constant": false,
      "inputs": [
        {
          "internalType": "uint256",
          "name": "_vote",
          "type": "uint256"
        }
      ],
      "name": "addPerson",
      "outputs": [
        {
          "internalType": "uint256",
          "name": "vote",
          "type": "uint256"
        }
      ],
      "payable": false,
      "stateMutability": "nonpayable",
      "type": "function"
    },
    {
      "constant": true,
      "inputs": [],
      "name": "getVoteCounts",
      "outputs": [
        {
          "internalType": "uint256",
          "name": "blueVotes",
          "type": "uint256"
        },
        {
          "internalType": "uint256",
          "name": "redVotes",
          "type": "uint256"
        }
      ],
      "payable": false,
      "stateMutability": "view",
      "type": "function"
    }
  ],
  "bytecode": "0x608060405234801561001057600080fd5b506105b7806100206000396000f3fe608060405234801561001057600080fd5b506004361061004c5760003560e01c80635df81330146100515780637bc55ce114610093578063da58c7d9146100d5578063ffc97b2014610143575b600080fd5b61007d6004803603602081101561006757600080fd5b8101908080359060200190929190505050610168565b6040518082815260200191505060405180910390f35b6100bf600480360360208110156100a957600080fd5b8101908080359060200190929190505050610189565b6040518082815260200191505060405180910390f35b610101600480360360208110156100eb57600080fd5b8101908080359060200190929190505050610471565b604051808273ffffffffffffffffffffffffffffffffffffffff1673ffffffffffffffffffffffffffffffffffffffff16815260200191505060405180910390f35b61014b6104ad565b604051808381526020018281526020019250505060405180910390f35b6001818154811061017557fe5b906000526020600020016000915090505481565b6000803390506000809050600080905060008090505b600080549050811015610233578373ffffffffffffffffffffffffffffffffffffffff16600082815481106101d057fe5b906000526020600020906003020160020160009054906101000a900473ffffffffffffffffffffffffffffffffffffffff1673ffffffffffffffffffffffffffffffffffffffff16141561022657600192508091505b808060010191505061019f565b5060001515821515146102ae576040517f08c379a000000000000000000000000000000000000000000000000000000000815260040180806020018281038252601e8152602001807f536f7272792c20796f75206861766520616c726561647920766f7465642e000081525060200191505060405180910390fd5b600085101580156102c0575060018511155b610332576040517f08c379a00000000000000000000000000000000000000000000000000000000081526004018080602001828103825260128152602001807f566f7465206973206e6f742030206f722031000000000000000000000000000081525060200191505060405180910390fd5b61033a61054b565b60405180606001604052808381526020018781526020018573ffffffffffffffffffffffffffffffffffffffff16815250905060008190806001815401808255809150509060018203906000526020600020906003020160009091929091909150600082015181600001556020820151816001015560408201518160020160006101000a81548173ffffffffffffffffffffffffffffffffffffffff021916908373ffffffffffffffffffffffffffffffffffffffff160217905550505050817fa4bbc24cff8006e1b34cd2878444fbe6b0a4e74ab66ca8d81b1dc664295fa0758786604051808381526020018273ffffffffffffffffffffffffffffffffffffffff1673ffffffffffffffffffffffffffffffffffffffff1681526020019250505060405180910390a285945050505050919050565b6002818154811061047e57fe5b906000526020600020016000915054906101000a900473ffffffffffffffffffffffffffffffffffffffff1681565b6000806000809050600080905060008090505b60008054905081101561053e5760008082815481106104db57fe5b9060005260206000209060030201600101541415610500578280600101935050610531565b60016000828154811061050f57fe5b90600052602060002090600302016001015414156105305781806001019250505b5b80806001019150506104c0565b5081819350935050509091565b60405180606001604052806000815260200160008152602001600073ffffffffffffffffffffffffffffffffffffffff168152509056fea265627a7a72315820cf1ecb7c44e6dff3b28b067deabb91898229e65b657d50be8ab65ebb9c51113464736f6c63430005100032",
  "source": "pragma solidity ^0.5.0;\n\ncontract Vote {\n\t\n\tstruct Person {\n\t\tuint i;\n\t\tuint vote;\n\t\taddress voter;\n\t}\n\n\tPerson[] persons;\n\tuint[] public votes;\n\taddress[] public voters;\n\n\tevent PersonAdded(uint indexed id, uint vote, address voter);\n\t\n\t// record votes using the addPerson function\n\tfunction addPerson(uint _vote) public returns (uint vote) {\n\n\t\taddress voter = msg.sender;\n\t\tbool alreadyVoted = false;\n\t\tuint index = 0; \n\t\t\n\t\t// check to see if this address has already voted\n\t\tfor(uint i=0; i<persons.length; i++) {\t\n\t\t\tif (persons[i].voter == voter) {\n\t\t\t\talreadyVoted = true;\n\t\t\t\tindex = i;\n\t\t\t} \n\t\t}\n\t\t\n\t\t// Throw an error if the voter has already voted\n\t\trequire(alreadyVoted == false, \"Sorry, you have already voted.\");\n\t\t\n\t\t\n\t\t// voters can choose between two colors: voteId 0 is blue; voteId 1 is red\n\t\t// ensure the vote is being place for one of these two colors\n\t\trequire(_vote >= 0 && _vote <= 1, \"Vote is not 0 or 1\");\n\n\n\t\t// Add vote & emit event\n\t\tPerson memory person = Person(index, _vote, voter);\n\n        persons.push(person);\n\n\t\temit PersonAdded(index, _vote, voter);\n\n\t\treturn _vote;\n\n\t}\n\n\n\t// retrieve the vote counts\n\tfunction getVoteCounts() public view returns (uint blueVotes, uint redVotes) {\n\n\t\tuint blue = 0;\n\t\tuint red = 0;\n\n\t\tfor(uint i=0; i<persons.length; i++) {\n\t\t\tif (persons[i].vote == 0) {\n\t\t\t\tblue++;\n\t\t\t} else if (persons[i].vote == 1) {\n\t\t\t\tred++;\n\t\t\t}\n\t\t}\n\n\t\treturn (blue, red);\n\t\n\t} \n\n}",
  "sourcePath": "/Users/davidcrowe/code/harvard/csci_e118/voting-app/contracts/Vote.sol",
  "compiler": {
    "name": "solc",
    "version": "0.5.16+commit.9c3226ce.Emscripten.clang"
  },
  "schemaVersion": "3.1.0",
  "updatedAt": "2020-04-27T22:43:07.680Z",
  "networkType": "ethereum",
  "devdoc": {
    "methods": {}
  },
  "userdoc": {
    "methods": {}
  }
}